:100000000C9456000C9474000C94ED000C94ED00CC
:100010000C94ED000C94ED000C94ED000C94ED00AC
:100020000C94ED000C94ED000C94ED000C94ED009C
:100030000C94ED000C94ED000C94ED000C94ED008C
:100040000C94ED000C94ED000C94ED000C94ED007C
:100050000C94ED000C94ED000C94ED000C94ED006C
:100060000C94ED000C94ED000C94ED000C94ED005C
:100070000C94ED000C94ED000C94ED000C94ED004C
:100080000C94ED000C94ED000C94ED000C94ED003C
:100090000C94ED000C94ED000C94ED000C94ED002C
:1000A0000C94ED000C94ED000C94ED0011241FBE97
:1000B000CFEFDAE0DEBFCDBF0E94DB000C94E200A0
:0400C000F894FFCFE2
:1000C400CF93DF93CDB7DEB7F8940000DF91CF91E3
:1000D4000895CF93DF93CDB7DEB778940000DF9116
:1000E400CF9108951F920F920FB60F921124CF93C0
:1000F400DF93CDB7DEB70000DF91CF910F900FBE35
:100104000F901F901895CF93DF93CDB7DEB70E9461
:10011400620087ED90E027ED30E0F9012081216055
:10012400FC01208389E490E029E430E0F901208196
:100134002261FC012083000089E490E0FC018081BD
:10014400882F90E081709927892BB1F388ED90E096
:1001540028ED30E0F90120812069FC01208388ED3D
:1001640090E028ED30E0F90120812F7DFC0120830F
:1001740080EE90E020EE30E0F90120812B7FFC013D
:10018400208380EE90E020EE30E0F90120812E7F84
:10019400FC01208382EE90E022EE30E0F901208120
:1001A4002C60FC0120830E946B000000DF91CF9142
:1001B4000895CF93DF93CDB7DEB70E948500FFCFBC
:1001C400EC010E94F2000E94F100CE010E94F300B3
:0601D400CE010E94EF00C5
:0401DA000C94000081
:0401DE000E9460001B
:0201E20008957E
:0201E40008957C
:0201E60008957A
:00000001FF
