:100000000C9456000C9412010C9412010C941201E1
:100010000C9412010C9412010C9412010C94120114
:100020000C9412010C9412010C9412010C94120104
:100030000C9412010C9412010C9412010C941201F4
:100040000C9412010C9412010C9412010C941201E4
:100050000C9412010C9412010C9412010C941201D4
:100060000C9412010C9412010C9412010C941201C4
:100070000C9412010C9412010C9412010C941201B4
:100080000C9412010C9412010C9412010C941201A4
:100090000C9412010C9412010C9412010C94120194
:1000A0000C9412010C9412010C94120111241FBE25
:1000B000CFEFDAE0DEBFCDBF0E9400010C94070154
:0400C000F894FFCFE2
:1000C4000091D80000610093D80000000000009166
:1000D400D8000F7E0093D8000091D70001600093F0
:1000E400D70004E00093520000914900026000939D
:1000F40049000091490000FFFCCF01E00093D800C3
:10010400789401E00093D70000E04092490004E8AD
:10011400009352000091490002600093490000914D
:10012400490000FFFCCF01E00093D8000091E000FB
:1001340004600093E00000E00093E90001E0009314
:10014400EB0000270093EC0002E10093ED00002790
:100154000093E8000091D90000FFFCCF0091E0007B
:100164000E7F0093E0003ED001E00093D7000091A1
:10017400D800006A0093D80002E00093490000917F
:10018400490000FFFCCF0091D80000690093D8001B
:100194000091E0000E7F0093E00018D008950091D4
:1001A400E00002600093E0000091D800006000933A
:1001B400D8000091DA0000FFFCCF05720093DA004A
:1001C4000091D90000FF01C001D07ACF0FEF04B92C
:1001D40005B907B908B90AB90BB90DB90EB900BB0D
:1001E40001BB0895002704B905B907B908B90AB9CC
:1001F4000BB90DB90EB900BB01BB08950FEF009305
:0A0204002700009328005CDFFFCF05
:10020E00EC010E9417010E941601CE010E941801F6
:06021E00CE010E94140154
:040224000C94000036
:040228000E946000D0
:02022C00089533
:02022E00089531
:0202300008952F
:00000001FF
