:020000040000FA
:100000000C945C000C9423050C9423050C9423059C
:100010000C9423050C9423050C9423050C942305C0
:100020000C9423050C9423050C9469030C94A203EF
:100030000C9423050C9423050C9423050C942305A0
:100040000C9423050C9423050C9423050C94230590
:100050000C9423050C9423050C9423050C94230580
:100060000C9423050C9423050C9423050C94230570
:100070000C9423050C9423050C9423050C94230560
:100080000C9423050C9423050C9423050C94230550
:100090000C9423050C9423050C9423050C94230540
:1000A0000C9423050C9423050C9423050100017383
:1000B000000A54017301798011241FBECFEFDAE0EA
:1000C000DEBFCDBFECEAF0E040E017C0B591A591EE
:1000D00035912591059107FD0CC095918591EF0112
:1000E000F92FE82F05900D92A217B307D9F7FE015B
:1000F00004C01D92A217B307E1F7E83BF40731F7FC
:100100000E940D050C941805F894FFCFCF93DF9350
:10011000CDB7DEB7F8940000DF91CF910895CF936B
:10012000DF93CDB7DEB778940000DF91CF910895CB
:10013000CF93DF93CDB7DEB700000000DF91CF9102
:100140000895CF93DF93CDB7DEB70E94860087ED89
:1001500090E027ED30E0F90120812160FC0120834F
:1001600089E490E029E430E0F90120812261FC017A
:100170002083000089E490E0FC018081882F90E0DA
:1001800081709927892BB1F388ED90E028ED30E05C
:10019000F90120812069FC01208388ED90E028EDA1
:1001A00030E0F90120812F7DFC01208380EE90E07A
:1001B00020EE30E0F90120812B7FFC01208380EECE
:1001C00090E020EE30E0F90120812E7FFC012083B9
:1001D00082EE90E022EE30E0F90120812C60FC01FB
:1001E000208380EF90E020EF30E0F901208128604B
:1001F000FC0120830E948F000000DF91CF910895C1
:10020000CF93DF93CDB7DEB789EE90E0FC0110828B
:100210008BEE90E02BEE30E0F90120812160FC01B3
:1002200020838CEE90E0FC0110828DEE90E022E2C3
:10023000FC0120838AEE90E021E0FC0120838AEE1D
:1002400090E0FC01108280EF90E020EF30E0F901B7
:1002500020812860FC0120830000DF91CF91089568
:10026000CF93DF93CDB7DEB70E94A1000000DF91EE
:10027000CF910895CF93DF93CDB7DEB78BEE90E0AB
:100280002BEE30E0F90120812162FC012083000087
:10029000DF91CF910895CF93DF93CDB7DEB7000004
:1002A00088EE90E0FC018081882F90E08170992792
:1002B000892BB1F30000DF91CF910895CF93DF93A5
:1002C000CDB7DEB72D970FB6F894DEBF0FBECDBF0A
:1002D0002E833F83488759876A877B878C879D87D2
:1002E0001A8219821B8288859985811522E09207DE
:1002F000B9F08130E2E09E0720F48115914049F089
:1003000024C0811521E2920791F081159242B1F04B
:100310001CC08FE391E09A83898382E18B8318C0AC
:1003200081E591E09A83898382E28B8311C083E621
:1003300091E09A83898389E08B830AC080E091E011
:100340009A8389838FE38B8303C00E943A01000064
:100350008B81282F30E08C859D858217930790F53F
:100360008C859D858B832EC00E944B018B818C8355
:100370008C81813210F080E28C831D8210C021EFCD
:1003800030E089819A81AC014F5F5F4F5A83498386
:10039000FC018081F90180838D818F5F8D839D8138
:1003A0008C81981760F388EE90E028EE30E0F90138
:1003B00020812E7FFC0120839B818C81F92FF81BEB
:1003C0008F2F8B838B81882379F600002D960FB6B3
:1003D000F894DEBF0FBECDBFDF91CF910895CF93CC
:1003E000DF93CDB7DEB728970FB6F894DEBF0FBE08
:1003F000CDBF29833A834B835C836D837E838F8358
:10040000988788EE90E028EE30E0F90120812E7F79
:10041000FC01208389EE90E023E0FC0120838BEE39
:1004200090E021E0FC0120838CEE90E021ECFC01C7
:1004300020838DEE90E026E0FC0120838AEE90E0A0
:100440002EE1FC0120838AEE90E0FC011082000086
:1004500028960FB6F894DEBF0FBECDBFDF91CF91C7
:100460000895CF93DF93CDB7DEB728970FB6F894F2
:10047000DEBF0FBECDBF29833A834B835C836D8380
:100480007E838F83988788EE90E028EE30E0F90134
:1004900020812E7FFC0120830E944B0183EE90E09F
:1004A0002B813C812068FC012083000028960FB638
:1004B000F894DEBF0FBECDBFDF91CF910895CF93EB
:1004C000DF93CDB7DEB70E944B0181EF90E0FC01D6
:1004D000108281EF90E0FC01108288EE90E028EE1F
:1004E00030E0F90120812E7FFC0120830000DF91A4
:1004F000CF910895CF93DF930F92CDB7DEB7898365
:1005000089EE90E023E0FC01208381EF90E0FC0184
:10051000108281EF90E0FC01108281EF90E0298150
:10052000FC01208381EF90E0FC01108281EF90E0DC
:10053000FC01108281EF90E0FC01108281EF90E0DD
:10054000FC01108281EF90E0FC01108288EE90E0C7
:100550002AE3FC01208300000F90DF91CF910895E2
:10056000CF93DF9300D000D0CDB7DEB79B838A83D3
:100570006C83198211C08981882F90E02A813B8188
:10058000820F931FFC0190818C81981711F489814F
:1005900007C089818F5F89838981863060F38FEFFF
:1005A0000F900F900F900F90DF91CF910895CF9300
:1005B000DF9300D00F92CDB7DEB79B838A8389EE9D
:1005C00090E023E0FC01208381EF90E0FC011082A9
:1005D00081EF90E0FC011082198210C081EF90E061
:1005E0002981222F30E04A815B81240F351FF901D8
:1005F0002081FC01208389818F5F898389818630F6
:1006000068F388EE90E02AE3FC01208300000F905D
:100610000F900F90DF91CF910895CF93DF9300D08B
:1006200000D0CDB7DEB79B838A836C838A819B81A0
:100630006C810E94B0028F3F11F08FEF20C01982B1
:100640001AC08981882F90E02A813B81820F931FF5
:10065000FC018081882361F48981882F90E02A81C0
:100660003B81820F931F2C81FC012083898107C06D
:1006700089818F5F89838981863018F38FEF0F908E
:100680000F900F900F90DF91CF910895CF93DF934C
:1006900000D000D0CDB7DEB79B838A836C838A817C
:1006A0009B816C810E94B002898389818F3F49F0D0
:1006B0008981882F90E02A813B81820F931FFC0162
:1006C000108289810F900F900F900F90DF91CF9142
:1006D00008951F920F920FB60F9211242F933F93FC
:1006E0004F935F936F937F938F939F93AF93BF933A
:1006F000EF93FF93CF93DF93CDB7DEB781EE90E01A
:10070000FC018081882F90E088709927892B11F057
:100710000E94000181EE90E0FC0110820000DF9158
:10072000CF91FF91EF91BF91AF919F918F917F9169
:100730006F915F914F913F912F910F900FBE0F904E
:100740001F9018951F920F920FB60F9211242F939E
:100750003F934F935F936F937F938F939F93AF9349
:10076000BF93EF93FF93CF93DF93CDB7DEB7289777
:10077000DEBFCDBF89EE90E0FC01108281EF90E0FA
:10078000FC018081898381EF90E0FC0180818A8374
:1007900081EF90E0FC018081882F90E09C838B8327
:1007A0008B819C8121EF30E0F9012081222F30E004
:1007B000322F2227822B932B9C838B8381EF90E017
:1007C000FC018081882F90E09E838D838D819E81A6
:1007D00021EF30E0F9012081222F30E0322F222753
:1007E000822B932B9E838D8381EF90E0FC0180818F
:1007F000882F90E098878F838F81988521EF30E054
:10080000F9012081222F30E0322F2227822B932BD7
:1008100098878F8388EE90E028EE30E0F901208100
:10082000227FFC0120838A81882F90E0853091050A
:1008300011F1863091051CF4892B41F12AC08630D4
:10084000910519F0099761F024C029813A814B8103
:100850005C816D817E818F8198850E945E011CC0C4
:1008600029813A814B815C816D817E818F81988560
:100870000E94EF0111C029813A814B815C816D8119
:100880007E818F8198850E94310206C00E945F029E
:1008900003C00E943A010000000028960FB6F894A9
:1008A000DEBF0FBECDBFDF91CF91FF91EF91BF9122
:1008B000AF919F918F917F916F915F914F913F91F8
:1008C0002F910F900FBE0F901F901895CF93DF932D
:1008D000CDB7DEB78AE290E0FC0110828AE290E0B8
:1008E0002AE230E0F90120812360FC0120838BE2C1
:1008F00090E02BE230E0F90120812C60FC012083A4
:100900000000DF91CF910895CF93DF930F92CDB781
:10091000DEB719820AC08981882F90E08D589E4FDA
:10092000FC01108289818F5F89838981863098F3E9
:100930008BE290E02BE230E0F90120812D7FFC0179
:1009400020838BE290E02BE230E0F90120812160EE
:10095000FC0120830E9498000E94980089E290E0A8
:10096000FC018081882F90E084709927892B29F4DD
:1009700066E183E791E00E940D0389E290E0FC01CB
:100980008081882F90E088709927892B29F464E072
:1009900083E791E00E940D038BE290E02BE230E0D0
:1009A000F90120812E7FFC0120830E9498000E9483
:1009B00098008BE290E02BE230E0F9012081226088
:1009C000FC0120830E9498000E94980089E290E038
:1009D000FC018081882F90E084709927892B29F46D
:1009E0006AE183E791E00E940D0389E290E0FC0157
:1009F0008081882F90E088709927892B29F467E0FF
:100A000083E791E00E940D0383E791E00E94D70203
:100A100000000F90DF91CF910895CF93DF93CDB772
:100A2000DEB70E9466040E9430010E948404FDCF5C
:100A3000EC010E9428050E942705CE010E9429058D
:100A4000CE010E9425050C9400000E9484000895A8
:100A50000895089505010906A101050719E029E790
:100A60001500250175019508810295017508810120
:100A70009505750105081901290591029501750370
:100A8000910195067508150025650507190029656A
:100A90008100C012010002000000200000000001DF
:100AA0000000000001090222000101008001090488
:100AB00000000103010100092101010001223F00A2
:100AC00007058303080001FFFFFFFFFFFFFFFFFF94
:100AD000FFFFFFFFFFFFFFFFFFFFFFFFFFFFFFFF26
:100AE000FFFFFFFFFFFFFFFFFFFFFFFFFFFFFFFF16
:100AF000FFFFFFFFFFFFFFFFFFFFFFFFFFFFFFFF06
:100B0000FFFFFFFFFFFFFFFFFFFFFFFFFFFFFFFFF5
:02000004008278
:03000000FFD8FB2B
:02000004008377
:01000000FF00
:02000004008179
:10000000FFFFFFFFFFFFFFFFFFFFFFFFFFFFFFFF00
:10001000FFFFFFFFFFFFFFFFFFFFFFFFFFFFFFFFF0
:10002000FFFFFFFFFFFFFFFFFFFFFFFFFFFFFFFFE0
:10003000FFFFFFFFFFFFFFFFFFFFFFFFFFFFFFFFD0
:00000001FF
